{
  "contractName": "MultiSig",
  "abi": [
    {
      "constant": true,
      "inputs": [
        {
          "name": "",
          "type": "uint256"
        }
      ],
      "name": "openProposalAddresses",
      "outputs": [
        {
          "name": "",
          "type": "address"
        }
      ],
      "payable": false,
      "stateMutability": "view",
      "type": "function"
    },
    {
      "constant": true,
      "inputs": [
        {
          "name": "",
          "type": "address"
        }
      ],
      "name": "members",
      "outputs": [
        {
          "name": "exists",
          "type": "bool"
        }
      ],
      "payable": false,
      "stateMutability": "view",
      "type": "function"
    },
    {
      "constant": true,
      "inputs": [
        {
          "name": "",
          "type": "address"
        }
      ],
      "name": "contributors",
      "outputs": [
        {
          "name": "value",
          "type": "uint256"
        }
      ],
      "payable": false,
      "stateMutability": "view",
      "type": "function"
    },
    {
      "constant": true,
      "inputs": [],
      "name": "signer1",
      "outputs": [
        {
          "name": "",
          "type": "address"
        }
      ],
      "payable": false,
      "stateMutability": "view",
      "type": "function"
    },
    {
      "constant": true,
      "inputs": [],
      "name": "signer2",
      "outputs": [
        {
          "name": "",
          "type": "address"
        }
      ],
      "payable": false,
      "stateMutability": "view",
      "type": "function"
    },
    {
      "constant": true,
      "inputs": [],
      "name": "signer3",
      "outputs": [
        {
          "name": "",
          "type": "address"
        }
      ],
      "payable": false,
      "stateMutability": "view",
      "type": "function"
    },
    {
      "constant": true,
      "inputs": [
        {
          "name": "",
          "type": "uint256"
        }
      ],
      "name": "contributorAddresses",
      "outputs": [
        {
          "name": "",
          "type": "address"
        }
      ],
      "payable": false,
      "stateMutability": "view",
      "type": "function"
    },
    {
      "constant": true,
      "inputs": [
        {
          "name": "",
          "type": "address"
        }
      ],
      "name": "openProposals",
      "outputs": [
        {
          "name": "value",
          "type": "uint256"
        },
        {
          "name": "proposalState",
          "type": "uint8"
        },
        {
          "name": "yea_count",
          "type": "uint256"
        },
        {
          "name": "nay_count",
          "type": "uint256"
        },
        {
          "name": "na_count",
          "type": "uint256"
        },
        {
          "name": "isExists",
          "type": "bool"
        },
        {
          "name": "beneficiary",
          "type": "address"
        },
        {
          "name": "index",
          "type": "uint256"
        }
      ],
      "payable": false,
      "stateMutability": "view",
      "type": "function"
    },
    {
      "inputs": [],
      "payable": false,
      "stateMutability": "nonpayable",
      "type": "constructor"
    },
    {
      "payable": true,
      "stateMutability": "payable",
      "type": "fallback"
    },
    {
      "anonymous": false,
      "inputs": [
        {
          "indexed": true,
          "name": "percentamt",
          "type": "uint256"
        }
      ],
      "name": "test_value",
      "type": "event"
    },
    {
      "anonymous": false,
      "inputs": [
        {
          "indexed": true,
          "name": "_contributor",
          "type": "address"
        },
        {
          "indexed": false,
          "name": "_valueInWei",
          "type": "uint256"
        }
      ],
      "name": "ReceivedContribution",
      "type": "event"
    },
    {
      "anonymous": false,
      "inputs": [
        {
          "indexed": true,
          "name": "_beneficiary",
          "type": "address"
        },
        {
          "indexed": false,
          "name": "_valueInWei",
          "type": "uint256"
        }
      ],
      "name": "ProposalSubmitted",
      "type": "event"
    },
    {
      "anonymous": false,
      "inputs": [
        {
          "indexed": true,
          "name": "_approver",
          "type": "address"
        },
        {
          "indexed": true,
          "name": "_beneficiary",
          "type": "address"
        },
        {
          "indexed": false,
          "name": "_valueInWei",
          "type": "uint256"
        }
      ],
      "name": "ProposalApproved",
      "type": "event"
    },
    {
      "anonymous": false,
      "inputs": [
        {
          "indexed": true,
          "name": "_approver",
          "type": "address"
        },
        {
          "indexed": true,
          "name": "_beneficiary",
          "type": "address"
        },
        {
          "indexed": false,
          "name": "_valueInWei",
          "type": "uint256"
        }
      ],
      "name": "ProposalRejected",
      "type": "event"
    },
    {
      "anonymous": false,
      "inputs": [
        {
          "indexed": true,
          "name": "_beneficiary",
          "type": "address"
        },
        {
          "indexed": false,
          "name": "_valueInWei",
          "type": "uint256"
        }
      ],
      "name": "WithdrawPerformed",
      "type": "event"
    },
    {
      "constant": true,
      "inputs": [],
      "name": "owner",
      "outputs": [
        {
          "name": "",
          "type": "address"
        }
      ],
      "payable": false,
      "stateMutability": "view",
      "type": "function"
    },
    {
      "constant": false,
      "inputs": [],
      "name": "endContributionPeriod",
      "outputs": [],
      "payable": false,
      "stateMutability": "nonpayable",
      "type": "function"
    },
    {
      "constant": false,
      "inputs": [],
      "name": "startContributionPeriod",
      "outputs": [],
      "payable": false,
      "stateMutability": "nonpayable",
      "type": "function"
    },
    {
      "constant": false,
      "inputs": [
        {
          "name": "index",
          "type": "uint256"
        }
      ],
      "name": "remove_at_index",
      "outputs": [
        {
          "name": "",
          "type": "address[]"
        }
      ],
      "payable": false,
      "stateMutability": "nonpayable",
      "type": "function"
    },
    {
      "constant": true,
      "inputs": [],
      "name": "contract_balance",
      "outputs": [
        {
          "name": "",
          "type": "uint256"
        }
      ],
      "payable": false,
      "stateMutability": "view",
      "type": "function"
    },
    {
      "constant": false,
      "inputs": [
        {
          "name": "_valueInWei",
          "type": "uint256"
        }
      ],
      "name": "submitProposal",
      "outputs": [],
      "payable": false,
      "stateMutability": "nonpayable",
      "type": "function"
    },
    {
      "constant": true,
      "inputs": [],
      "name": "listOpenBeneficiariesProposals",
      "outputs": [
        {
          "name": "",
          "type": "address[]"
        }
      ],
      "payable": false,
      "stateMutability": "view",
      "type": "function"
    },
    {
      "constant": true,
      "inputs": [
        {
          "name": "_beneficiary",
          "type": "address"
        }
      ],
      "name": "getBeneficiaryProposal",
      "outputs": [
        {
          "name": "",
          "type": "uint256"
        }
      ],
      "payable": false,
      "stateMutability": "view",
      "type": "function"
    },
    {
      "constant": true,
      "inputs": [],
      "name": "listContributors",
      "outputs": [
        {
          "name": "",
          "type": "address[]"
        }
      ],
      "payable": false,
      "stateMutability": "view",
      "type": "function"
    },
    {
      "constant": true,
      "inputs": [
        {
          "name": "_contributor",
          "type": "address"
        }
      ],
      "name": "getContributorAmount",
      "outputs": [
        {
          "name": "",
          "type": "uint256"
        }
      ],
      "payable": false,
      "stateMutability": "view",
      "type": "function"
    },
    {
      "constant": false,
      "inputs": [
        {
          "name": "_beneficiary",
          "type": "address"
        }
      ],
      "name": "approve",
      "outputs": [],
      "payable": false,
      "stateMutability": "nonpayable",
      "type": "function"
    },
    {
      "constant": false,
      "inputs": [
        {
          "name": "_beneficiary",
          "type": "address"
        }
      ],
      "name": "reject",
      "outputs": [],
      "payable": false,
      "stateMutability": "nonpayable",
      "type": "function"
    },
    {
      "constant": false,
      "inputs": [
        {
          "name": "_valueInWei",
          "type": "uint256"
        }
      ],
      "name": "withdraw",
      "outputs": [],
      "payable": false,
      "stateMutability": "nonpayable",
      "type": "function"
    },
    {
      "constant": false,
      "inputs": [],
      "name": "getValue",
      "outputs": [
        {
          "name": "",
          "type": "uint256"
        }
      ],
      "payable": false,
      "stateMutability": "nonpayable",
      "type": "function"
    },
    {
      "constant": true,
      "inputs": [],
      "name": "openProposalADD",
      "outputs": [
        {
          "name": "",
          "type": "address[]"
        }
      ],
      "payable": false,
      "stateMutability": "view",
      "type": "function"
    },
    {
      "constant": true,
      "inputs": [
        {
          "name": "_signer",
          "type": "address"
        },
        {
          "name": "_beneficiary",
          "type": "address"
        }
      ],
      "name": "getSignerVote",
      "outputs": [
        {
          "name": "",
          "type": "uint256"
        }
      ],
      "payable": false,
      "stateMutability": "view",
      "type": "function"
    }
  ],
  "bytecode": "0x6080604052336000806101000a81548173ffffffffffffffffffffffffffffffffffffffff021916908373ffffffffffffffffffffffffffffffffffffffff16021790555034801561005057600080fd5b506000600360146101000a81548160ff0219169083600181111561007057fe5b021790555073fa3c6a1d480a14c546f12cdbb6d1bacbf02a1610600160006101000a81548173ffffffffffffffffffffffffffffffffffffffff021916908373ffffffffffffffffffffffffffffffffffffffff160217905550732f47343208d8db38a64f49d7384ce70367fc98c0600260006101000a81548173ffffffffffffffffffffffffffffffffffffffff021916908373ffffffffffffffffffffffffffffffffffffffff160217905550737c0e7b2418141f492653c6bf9ced144c338ba740600360006101000a81548173ffffffffffffffffffffffffffffffffffffffff021916908373ffffffffffffffffffffffffffffffffffffffff160217905550600160046000600160009054906101000a900473ffffffffffffffffffffffffffffffffffffffff1673ffffffffffffffffffffffffffffffffffffffff1673ffffffffffffffffffffffffffffffffffffffff16815260200190815260200160002060000160006101000a81548160ff021916908315150217905550600160046000600260009054906101000a900473ffffffffffffffffffffffffffffffffffffffff1673ffffffffffffffffffffffffffffffffffffffff1673ffffffffffffffffffffffffffffffffffffffff16815260200190815260200160002060000160006101000a81548160ff021916908315150217905550600160046000600360009054906101000a900473ffffffffffffffffffffffffffffffffffffffff1673ffffffffffffffffffffffffffffffffffffffff1673ffffffffffffffffffffffffffffffffffffffff16815260200190815260200160002060000160006101000a81548160ff021916908315150217905550612c3f806102fa6000396000f30060806040526004361061013e576000357c0100000000000000000000000000000000000000000000000000000000900463ffffffff16806302b1108214610288578063057440d31461029f57806307a833e6146102ca57806308ae4b0c146103375780631f6d49421461039257806320965255146103e9578063237819fe146104145780632e1a7d4d146104805780632e518464146104ad578063341072821461050457806338c0ac5f1461055b5780633eeb92f6146105b257806359109b6414610609578063736d95aa1461067557806386b81eb6146106a25780638da5cb5b146107195780638dd0855714610770578063a12605ca146107dd578063ab0da5a9146108a3578063ba555b1f146108e6578063c651aada146108fd578063daea85c514610954578063db9b1a7f14610997578063f319dde614610a03575b6000341415151561014e57600080fd5b6000600181111561015b57fe5b600360149054906101000a900460ff16600181111561017657fe5b14151561018257600080fd5b34600660003373ffffffffffffffffffffffffffffffffffffffff1673ffffffffffffffffffffffffffffffffffffffff1681526020019081526020016000206000016000828254019250508190555060083390806001815401808255809150509060018203906000526020600020016000909192909190916101000a81548173ffffffffffffffffffffffffffffffffffffffff021916908373ffffffffffffffffffffffffffffffffffffffff160217905550503373ffffffffffffffffffffffffffffffffffffffff167f4af4040804455d5519363ab32562d3354dc05571e414cec4d799a581d6e6b3a7346040518082815260200191505060405180910390a2005b34801561029457600080fd5b5061029d610a85565b005b3480156102ab57600080fd5b506102b4610b64565b6040518082815260200191505060405180910390f35b3480156102d657600080fd5b506102f560048036038101908080359060200190929190505050610b83565b604051808273ffffffffffffffffffffffffffffffffffffffff1673ffffffffffffffffffffffffffffffffffffffff16815260200191505060405180910390f35b34801561034357600080fd5b50610378600480360381019080803573ffffffffffffffffffffffffffffffffffffffff169060200190929190505050610bc1565b604051808215151515815260200191505060405180910390f35b34801561039e57600080fd5b506103d3600480360381019080803573ffffffffffffffffffffffffffffffffffffffff169060200190929190505050610bec565b6040518082815260200191505060405180910390f35b3480156103f557600080fd5b506103fe610c0a565b6040518082815260200191505060405180910390f35b34801561042057600080fd5b50610429610c13565b6040518080602001828103825283818151815260200191508051906020019060200280838360005b8381101561046c578082015181840152602081019050610451565b505050509050019250505060405180910390f35b34801561048c57600080fd5b506104ab60048036038101908080359060200190929190505050610ca1565b005b3480156104b957600080fd5b506104ee600480360381019080803573ffffffffffffffffffffffffffffffffffffffff169060200190929190505050610eda565b6040518082815260200191505060405180910390f35b34801561051057600080fd5b50610519610f26565b604051808273ffffffffffffffffffffffffffffffffffffffff1673ffffffffffffffffffffffffffffffffffffffff16815260200191505060405180910390f35b34801561056757600080fd5b50610570610f4c565b604051808273ffffffffffffffffffffffffffffffffffffffff1673ffffffffffffffffffffffffffffffffffffffff16815260200191505060405180910390f35b3480156105be57600080fd5b506105c7610f72565b604051808273ffffffffffffffffffffffffffffffffffffffff1673ffffffffffffffffffffffffffffffffffffffff16815260200191505060405180910390f35b34801561061557600080fd5b5061061e610f98565b6040518080602001828103825283818151815260200191508051906020019060200280838360005b83811015610661578082015181840152602081019050610646565b505050509050019250505060405180910390f35b34801561068157600080fd5b506106a060048036038101908080359060200190929190505050611026565b005b3480156106ae57600080fd5b50610703600480360381019080803573ffffffffffffffffffffffffffffffffffffffff169060200190929190803573ffffffffffffffffffffffffffffffffffffffff1690602001909291905050506117f8565b6040518082815260200191505060405180910390f35b34801561072557600080fd5b5061072e611a1b565b604051808273ffffffffffffffffffffffffffffffffffffffff1673ffffffffffffffffffffffffffffffffffffffff16815260200191505060405180910390f35b34801561077c57600080fd5b5061079b60048036038101908080359060200190929190505050611a44565b604051808273ffffffffffffffffffffffffffffffffffffffff1673ffffffffffffffffffffffffffffffffffffffff16815260200191505060405180910390f35b3480156107e957600080fd5b5061081e600480360381019080803573ffffffffffffffffffffffffffffffffffffffff169060200190929190505050611a82565b6040518089815260200188600181111561083457fe5b60ff168152602001878152602001868152602001858152602001841515151581526020018373ffffffffffffffffffffffffffffffffffffffff1673ffffffffffffffffffffffffffffffffffffffff1681526020018281526020019850505050505050505060405180910390f35b3480156108af57600080fd5b506108e4600480360381019080803573ffffffffffffffffffffffffffffffffffffffff169060200190929190505050611b04565b005b3480156108f257600080fd5b506108fb6120e8565b005b34801561090957600080fd5b5061093e600480360381019080803573ffffffffffffffffffffffffffffffffffffffff1690602001909291905050506121c7565b6040518082815260200191505060405180910390f35b34801561096057600080fd5b50610995600480360381019080803573ffffffffffffffffffffffffffffffffffffffff169060200190929190505050612213565b005b3480156109a357600080fd5b506109ac6127f8565b6040518080602001828103825283818151815260200191508051906020019060200280838360005b838110156109ef5780820151818401526020810190506109d4565b505050509050019250505060405180910390f35b348015610a0f57600080fd5b50610a2e60048036038101908080359060200190929190505050612886565b6040518080602001828103825283818151815260200191508051906020019060200280838360005b83811015610a71578082015181840152602081019050610a56565b505050509050019250505060405180910390f35b6000809054906101000a900473ffffffffffffffffffffffffffffffffffffffff1673ffffffffffffffffffffffffffffffffffffffff163373ffffffffffffffffffffffffffffffffffffffff161480610b33575060011515600460003373ffffffffffffffffffffffffffffffffffffffff1673ffffffffffffffffffffffffffffffffffffffff16815260200190815260200160002060000160009054906101000a900460ff161515145b1515610b3e57600080fd5b6001600360146101000a81548160ff02191690836001811115610b5d57fe5b0217905550565b60003073ffffffffffffffffffffffffffffffffffffffff1631905090565b600781815481101515610b9257fe5b906000526020600020016000915054906101000a900473ffffffffffffffffffffffffffffffffffffffff1681565b60046020528060005260406000206000915090508060000160009054906101000a900460ff16905081565b60066020528060005260406000206000915090508060000154905081565b6000601e905090565b60606008805480602002602001604051908101604052809291908181526020018280548015610c9757602002820191906000526020600020905b8160009054906101000a900473ffffffffffffffffffffffffffffffffffffffff1673ffffffffffffffffffffffffffffffffffffffff1681526020019060010190808311610c4d575b5050505050905090565b600180811115610cad57fe5b600360149054906101000a900460ff166001811115610cc857fe5b141515610cd457600080fd5b600560003373ffffffffffffffffffffffffffffffffffffffff1673ffffffffffffffffffffffffffffffffffffffff16815260200190815260200160002060070160009054906101000a900460ff161515610d2f57600080fd5b6002600560003373ffffffffffffffffffffffffffffffffffffffff1673ffffffffffffffffffffffffffffffffffffffff1681526020019081526020016000206004015410151515610d8157600080fd5b600081118015610dd35750600560003373ffffffffffffffffffffffffffffffffffffffff1673ffffffffffffffffffffffffffffffffffffffff168152602001908152602001600020600001548111155b1515610dde57600080fd5b80600560003373ffffffffffffffffffffffffffffffffffffffff1673ffffffffffffffffffffffffffffffffffffffff16815260200190815260200160002060000160008282540392505081905550600560003373ffffffffffffffffffffffffffffffffffffffff1673ffffffffffffffffffffffffffffffffffffffff16815260200190815260200160002060070160019054906101000a900473ffffffffffffffffffffffffffffffffffffffff1673ffffffffffffffffffffffffffffffffffffffff166108fc829081150290604051600060405180830381858888f19350505050158015610ed6573d6000803e3d6000fd5b5050565b6000600660008373ffffffffffffffffffffffffffffffffffffffff1673ffffffffffffffffffffffffffffffffffffffff168152602001908152602001600020600001549050919050565b600160009054906101000a900473ffffffffffffffffffffffffffffffffffffffff1681565b600260009054906101000a900473ffffffffffffffffffffffffffffffffffffffff1681565b600360009054906101000a900473ffffffffffffffffffffffffffffffffffffffff1681565b6060600780548060200260200160405190810160405280929190818152602001828054801561101c57602002820191906000526020600020905b8160009054906101000a900473ffffffffffffffffffffffffffffffffffffffff1673ffffffffffffffffffffffffffffffffffffffff1681526020019060010190808311610fd2575b5050505050905090565b60008060008060018081111561103857fe5b600360149054906101000a900460ff16600181111561105357fe5b14151561105f57600080fd5b600560003373ffffffffffffffffffffffffffffffffffffffff1673ffffffffffffffffffffffffffffffffffffffff16815260200190815260200160002060000154935084840192503073ffffffffffffffffffffffffffffffffffffffff1631915081606484028115156110d157fe5b049050600a8111151561175d57807f4173e2d6c5c6a936ddb55d9a8eb7d92c164c5876cd378b1a34dfdfeda171dd6460405160405180910390a284600560003373ffffffffffffffffffffffffffffffffffffffff1673ffffffffffffffffffffffffffffffffffffffff168152602001908152602001600020600001600082825401925050819055506000600560003373ffffffffffffffffffffffffffffffffffffffff1673ffffffffffffffffffffffffffffffffffffffff16815260200190815260200160002060010160006101000a81548160ff021916908360018111156111ba57fe5b02179055506000600560003373ffffffffffffffffffffffffffffffffffffffff1673ffffffffffffffffffffffffffffffffffffffff1681526020019081526020016000206002016000600160009054906101000a900473ffffffffffffffffffffffffffffffffffffffff1673ffffffffffffffffffffffffffffffffffffffff1673ffffffffffffffffffffffffffffffffffffffff16815260200190815260200160002060006101000a81548160ff0219169083600281111561127d57fe5b02179055506000600560003373ffffffffffffffffffffffffffffffffffffffff1673ffffffffffffffffffffffffffffffffffffffff1681526020019081526020016000206002016000600260009054906101000a900473ffffffffffffffffffffffffffffffffffffffff1673ffffffffffffffffffffffffffffffffffffffff1673ffffffffffffffffffffffffffffffffffffffff16815260200190815260200160002060006101000a81548160ff0219169083600281111561134057fe5b02179055506000600560003373ffffffffffffffffffffffffffffffffffffffff1673ffffffffffffffffffffffffffffffffffffffff1681526020019081526020016000206002016000600360009054906101000a900473ffffffffffffffffffffffffffffffffffffffff1673ffffffffffffffffffffffffffffffffffffffff1673ffffffffffffffffffffffffffffffffffffffff16815260200190815260200160002060006101000a81548160ff0219169083600281111561140357fe5b02179055506000600560003373ffffffffffffffffffffffffffffffffffffffff1673ffffffffffffffffffffffffffffffffffffffff168152602001908152602001600020600401819055506000600560003373ffffffffffffffffffffffffffffffffffffffff1673ffffffffffffffffffffffffffffffffffffffff168152602001908152602001600020600501819055506003600560003373ffffffffffffffffffffffffffffffffffffffff1673ffffffffffffffffffffffffffffffffffffffff16815260200190815260200160002060060181905550600560003373ffffffffffffffffffffffffffffffffffffffff1673ffffffffffffffffffffffffffffffffffffffff16815260200190815260200160002060070160009054906101000a900460ff161515611647576001600560003373ffffffffffffffffffffffffffffffffffffffff1673ffffffffffffffffffffffffffffffffffffffff16815260200190815260200160002060070160006101000a81548160ff021916908315150217905550600160078054905003600560003373ffffffffffffffffffffffffffffffffffffffff1673ffffffffffffffffffffffffffffffffffffffff1681526020019081526020016000206008018190555060073390806001815401808255809150509060018203906000526020600020016000909192909190916101000a81548173ffffffffffffffffffffffffffffffffffffffff021916908373ffffffffffffffffffffffffffffffffffffffff160217905550505b33600560003373ffffffffffffffffffffffffffffffffffffffff1673ffffffffffffffffffffffffffffffffffffffff16815260200190815260200160002060070160016101000a81548173ffffffffffffffffffffffffffffffffffffffff021916908373ffffffffffffffffffffffffffffffffffffffff1602179055503373ffffffffffffffffffffffffffffffffffffffff167f9502d7618553b38b99edbe5d1547756cc9ab18db5ddd0674b051490ca4e2fb4c600560003373ffffffffffffffffffffffffffffffffffffffff1673ffffffffffffffffffffffffffffffffffffffff168152602001908152602001600020600001546040518082815260200191505060405180910390a26117f1565b6040517f08c379a00000000000000000000000000000000000000000000000000000000081526004018080602001828103825260258152602001807f4572726f7220747279696e6720746f2070726f706f7365206d6f72652074686181526020017f6e2031302500000000000000000000000000000000000000000000000000000081525060400191505060405180910390fd5b5050505050565b600080600281111561180657fe5b600560008473ffffffffffffffffffffffffffffffffffffffff1673ffffffffffffffffffffffffffffffffffffffff16815260200190815260200160002060020160008573ffffffffffffffffffffffffffffffffffffffff1673ffffffffffffffffffffffffffffffffffffffff16815260200190815260200160002060009054906101000a900460ff16600281111561189e57fe5b14156118ad5760009050611a15565b600160028111156118ba57fe5b600560008473ffffffffffffffffffffffffffffffffffffffff1673ffffffffffffffffffffffffffffffffffffffff16815260200190815260200160002060020160008573ffffffffffffffffffffffffffffffffffffffff1673ffffffffffffffffffffffffffffffffffffffff16815260200190815260200160002060009054906101000a900460ff16600281111561195257fe5b14156119615760019050611a15565b60028081111561196d57fe5b600560008473ffffffffffffffffffffffffffffffffffffffff1673ffffffffffffffffffffffffffffffffffffffff16815260200190815260200160002060020160008573ffffffffffffffffffffffffffffffffffffffff1673ffffffffffffffffffffffffffffffffffffffff16815260200190815260200160002060009054906101000a900460ff166002811115611a0557fe5b1415611a145760029050611a15565b5b92915050565b60008060009054906101000a900473ffffffffffffffffffffffffffffffffffffffff16905090565b600881815481101515611a5357fe5b906000526020600020016000915054906101000a900473ffffffffffffffffffffffffffffffffffffffff1681565b60056020528060005260406000206000915090508060000154908060010160009054906101000a900460ff16908060040154908060050154908060060154908060070160009054906101000a900460ff16908060070160019054906101000a900473ffffffffffffffffffffffffffffffffffffffff16908060080154905088565b6000809054906101000a900473ffffffffffffffffffffffffffffffffffffffff1673ffffffffffffffffffffffffffffffffffffffff163373ffffffffffffffffffffffffffffffffffffffff161480611bb2575060011515600460003373ffffffffffffffffffffffffffffffffffffffff1673ffffffffffffffffffffffffffffffffffffffff16815260200190815260200160002060000160009054906101000a900460ff161515145b1515611bbd57600080fd5b600560008273ffffffffffffffffffffffffffffffffffffffff1673ffffffffffffffffffffffffffffffffffffffff16815260200190815260200160002060070160009054906101000a900460ff161515611c1857600080fd5b60006001811115611c2557fe5b600560008373ffffffffffffffffffffffffffffffffffffffff1673ffffffffffffffffffffffffffffffffffffffff16815260200190815260200160002060010160009054906101000a900460ff166001811115611c8057fe5b141515611c8c57600080fd5b600280811115611c9857fe5b600560008373ffffffffffffffffffffffffffffffffffffffff1673ffffffffffffffffffffffffffffffffffffffff16815260200190815260200160002060020160003373ffffffffffffffffffffffffffffffffffffffff1673ffffffffffffffffffffffffffffffffffffffff16815260200190815260200160002060009054906101000a900460ff166002811115611d3057fe5b14151515611d3d57600080fd5b60006002811115611d4a57fe5b600560008373ffffffffffffffffffffffffffffffffffffffff1673ffffffffffffffffffffffffffffffffffffffff16815260200190815260200160002060020160003373ffffffffffffffffffffffffffffffffffffffff1673ffffffffffffffffffffffffffffffffffffffff16815260200190815260200160002060009054906101000a900460ff166002811115611de257fe5b1415611f2c576002600560008373ffffffffffffffffffffffffffffffffffffffff1673ffffffffffffffffffffffffffffffffffffffff16815260200190815260200160002060020160003373ffffffffffffffffffffffffffffffffffffffff1673ffffffffffffffffffffffffffffffffffffffff16815260200190815260200160002060006101000a81548160ff02191690836002811115611e8457fe5b02179055506001600560008373ffffffffffffffffffffffffffffffffffffffff1673ffffffffffffffffffffffffffffffffffffffff168152602001908152602001600020600501600082825401925050819055506001600560008373ffffffffffffffffffffffffffffffffffffffff1673ffffffffffffffffffffffffffffffffffffffff168152602001908152602001600020600601600082825403925050819055505b8073ffffffffffffffffffffffffffffffffffffffff163373ffffffffffffffffffffffffffffffffffffffff167ff810df3b626605dbc005192086f67ae1f96ccb46b942d17dc90f159a1018298e600560008573ffffffffffffffffffffffffffffffffffffffff1673ffffffffffffffffffffffffffffffffffffffff168152602001908152602001600020600001546040518082815260200191505060405180910390a36002600560008373ffffffffffffffffffffffffffffffffffffffff1673ffffffffffffffffffffffffffffffffffffffff168152602001908152602001600020600501541015156120e5576001600560008373ffffffffffffffffffffffffffffffffffffffff1673ffffffffffffffffffffffffffffffffffffffff16815260200190815260200160002060010160006101000a81548160ff0219169083600181111561207e57fe5b02179055506120ce600560008373ffffffffffffffffffffffffffffffffffffffff1673ffffffffffffffffffffffffffffffffffffffff16815260200190815260200160002060080154612886565b600790805190602001906120e3929190612af5565b505b50565b6000809054906101000a900473ffffffffffffffffffffffffffffffffffffffff1673ffffffffffffffffffffffffffffffffffffffff163373ffffffffffffffffffffffffffffffffffffffff161480612196575060011515600460003373ffffffffffffffffffffffffffffffffffffffff1673ffffffffffffffffffffffffffffffffffffffff16815260200190815260200160002060000160009054906101000a900460ff161515145b15156121a157600080fd5b6000600360146101000a81548160ff021916908360018111156121c057fe5b0217905550565b6000600560008373ffffffffffffffffffffffffffffffffffffffff1673ffffffffffffffffffffffffffffffffffffffff168152602001908152602001600020600001549050919050565b6000809054906101000a900473ffffffffffffffffffffffffffffffffffffffff1673ffffffffffffffffffffffffffffffffffffffff163373ffffffffffffffffffffffffffffffffffffffff1614806122c1575060011515600460003373ffffffffffffffffffffffffffffffffffffffff1673ffffffffffffffffffffffffffffffffffffffff16815260200190815260200160002060000160009054906101000a900460ff161515145b15156122cc57600080fd5b600560008273ffffffffffffffffffffffffffffffffffffffff1673ffffffffffffffffffffffffffffffffffffffff16815260200190815260200160002060070160009054906101000a900460ff16151561232757600080fd5b6000600181111561233457fe5b600560008373ffffffffffffffffffffffffffffffffffffffff1673ffffffffffffffffffffffffffffffffffffffff16815260200190815260200160002060010160009054906101000a900460ff16600181111561238f57fe5b14151561239b57600080fd5b600160028111156123a857fe5b600560008373ffffffffffffffffffffffffffffffffffffffff1673ffffffffffffffffffffffffffffffffffffffff16815260200190815260200160002060020160003373ffffffffffffffffffffffffffffffffffffffff1673ffffffffffffffffffffffffffffffffffffffff16815260200190815260200160002060009054906101000a900460ff16600281111561244057fe5b1415151561244d57600080fd5b6000600281111561245a57fe5b600560008373ffffffffffffffffffffffffffffffffffffffff1673ffffffffffffffffffffffffffffffffffffffff16815260200190815260200160002060020160003373ffffffffffffffffffffffffffffffffffffffff1673ffffffffffffffffffffffffffffffffffffffff16815260200190815260200160002060009054906101000a900460ff1660028111156124f257fe5b141561263c576001600560008373ffffffffffffffffffffffffffffffffffffffff1673ffffffffffffffffffffffffffffffffffffffff16815260200190815260200160002060020160003373ffffffffffffffffffffffffffffffffffffffff1673ffffffffffffffffffffffffffffffffffffffff16815260200190815260200160002060006101000a81548160ff0219169083600281111561259457fe5b02179055506001600560008373ffffffffffffffffffffffffffffffffffffffff1673ffffffffffffffffffffffffffffffffffffffff168152602001908152602001600020600401600082825401925050819055506001600560008373ffffffffffffffffffffffffffffffffffffffff1673ffffffffffffffffffffffffffffffffffffffff168152602001908152602001600020600601600082825403925050819055505b8073ffffffffffffffffffffffffffffffffffffffff163373ffffffffffffffffffffffffffffffffffffffff167f6785be290ed8ae6f56ea596a5b8b77b39d1c96fa2f2d17de1c58be88bb67af4d600560008573ffffffffffffffffffffffffffffffffffffffff1673ffffffffffffffffffffffffffffffffffffffff168152602001908152602001600020600001546040518082815260200191505060405180910390a36002600560008373ffffffffffffffffffffffffffffffffffffffff1673ffffffffffffffffffffffffffffffffffffffff168152602001908152602001600020600401541015156127f5576001600560008373ffffffffffffffffffffffffffffffffffffffff1673ffffffffffffffffffffffffffffffffffffffff16815260200190815260200160002060010160006101000a81548160ff0219169083600181111561278e57fe5b02179055506127de600560008373ffffffffffffffffffffffffffffffffffffffff1673ffffffffffffffffffffffffffffffffffffffff16815260200190815260200160002060080154612886565b600790805190602001906127f3929190612af5565b505b50565b6060600780548060200260200160405190810160405280929190818152602001828054801561287c57602002820191906000526020600020905b8160009054906101000a900473ffffffffffffffffffffffffffffffffffffffff1673ffffffffffffffffffffffffffffffffffffffff1681526020019060010190808311612832575b5050505050905090565b606060008060009054906101000a900473ffffffffffffffffffffffffffffffffffffffff1673ffffffffffffffffffffffffffffffffffffffff163373ffffffffffffffffffffffffffffffffffffffff161480612938575060011515600460003373ffffffffffffffffffffffffffffffffffffffff1673ffffffffffffffffffffffffffffffffffffffff16815260200190815260200160002060000160009054906101000a900460ff161515145b151561294357600080fd5b6007805490508310151561295657612aef565b8290505b600160078054905003811015612a0b5760076001820181548110151561297c57fe5b9060005260206000200160009054906101000a900473ffffffffffffffffffffffffffffffffffffffff166007828154811015156129b657fe5b9060005260206000200160006101000a81548173ffffffffffffffffffffffffffffffffffffffff021916908373ffffffffffffffffffffffffffffffffffffffff160217905550808060010191505061295a565b6007600160078054905003815481101515612a2257fe5b9060005260206000200160006101000a81549073ffffffffffffffffffffffffffffffffffffffff02191690556007805480919060019003612a649190612b7f565b506007805480602002602001604051908101604052809291908181526020018280548015612ae757602002820191906000526020600020905b8160009054906101000a900473ffffffffffffffffffffffffffffffffffffffff1673ffffffffffffffffffffffffffffffffffffffff1681526020019060010190808311612a9d575b505050505091505b50919050565b828054828255906000526020600020908101928215612b6e579160200282015b82811115612b6d5782518260006101000a81548173ffffffffffffffffffffffffffffffffffffffff021916908373ffffffffffffffffffffffffffffffffffffffff16021790555091602001919060010190612b15565b5b509050612b7b9190612bab565b5090565b815481835581811115612ba657818360005260206000209182019101612ba59190612bee565b5b505050565b612beb91905b80821115612be757600081816101000a81549073ffffffffffffffffffffffffffffffffffffffff021916905550600101612bb1565b5090565b90565b612c1091905b80821115612c0c576000816000905550600101612bf4565b5090565b905600a165627a7a7230582031a305457fb8daccfa4ab24361fccd4fe57d774fe8720a6cc6754bf12bf6c6800029",
  "source": "pragma solidity ^0.4.20;\n\ninterface AbstractMultiSig {\n\n  /*\n   * This function should return the onwer of this contract or whoever you\n   * want to receive the Gyaan Tokens reward if it's coded correctly.\n   */\n  function owner() external constant returns(address);\n\n  /*\n   * This event should be dispatched whenever the contract receives\n   * any contribution.\n   */\n  event ReceivedContribution(address indexed _contributor, uint _valueInWei);\n\n  /*\n   * When this contract is initially created, it's in the state\n   * \"Accepting contributions\". No proposals can be sent, no withdraw\n   * and no vote can be made while in this state. After this function\n   * is called, the contract state changes to \"Active\" in which it will\n   * not accept contributions anymore and will accept all other functions\n   * (submit proposal, vote, withdraw)\n   */\n  function endContributionPeriod() external;\n\n  /*\n   * Sends a withdraw proposal to the contract. The beneficiary would\n   * be \"_beneficiary\" and if approved, this address will be able to\n   * withdraw \"value\" Ethers.\n   *\n   * This contract should be able to handle many proposals at once.\n   */\n  function submitProposal(uint _valueInWei) external;\n  event ProposalSubmitted(address indexed _beneficiary, uint _valueInWei);\n\n  /*\n   * Returns a list of beneficiaries for the open proposals. Open\n   * proposal is the one in which the majority of voters have not\n   * voted yet.\n   */\n  function listOpenBeneficiariesProposals() external view returns (address[]);\n\n  /*\n   * Returns the value requested by the given beneficiary in his proposal.\n   */\n  function getBeneficiaryProposal(address _beneficiary) external view returns (uint);\n\n  /*\n   * List the addresses of the contributors, which are people that sent\n   * Ether to this contract.\n   */\n  function listContributors() external view returns (address[]);\n\n  /*\n   * Returns the amount sent by the given contributor in Wei.\n   */\n  function getContributorAmount(address _contributor) external view returns (uint);\n\n  /*\n   * Approve the proposal for the given beneficiary\n   */\n  function approve(address _beneficiary) external;\n  event ProposalApproved(address indexed _approver, address indexed _beneficiary, uint _valueInWei);\n\n  /*\n   * Reject the proposal of the given beneficiary\n   */\n  function reject(address _beneficiary) external;\n  event ProposalRejected(address indexed _approver, address indexed _beneficiary, uint _valueInWei);\n\n  /*\n   * Withdraw the specified value in Wei from the wallet.\n   * The beneficiary can withdraw any value less than or equal the value\n   * he/she proposed. If he/she wants to withdraw more, a new proposal\n   * should be sent.\n   *\n   */\n  function withdraw(uint _valueInWei) external;\n  event WithdrawPerformed(address indexed _beneficiary, uint _valueInWei);\n\n  /*\n   * Returns whether a given signer has voted in the given proposal and if so,\n   * what was his/her vote.\n   *\n   * @returns 0: if signer has not voted yet in this proposal, 1: if signer\n   * has voted YES in this proposal, 2: if signer has voted NO in this proposal\n   */\n  function getSignerVote(address _signer, address _beneficiary) view external returns(uint);\n\n}\n\ncontract MultiSig is AbstractMultiSig {\n\n  address public owner = msg.sender;\n  address public signer1;\n  address public signer2;\n  address public signer3;\n  enum contractState {Accepting_contributions,Active}\n  enum openProposalState {Open,Closed}\n  enum voteStatus {NA,Yea,Nay}\n  contractState state;\n  \n  \n   struct openproposaldata {\n     uint value;\n     openProposalState proposalState;\n     mapping(address => voteStatus) votes;\n     mapping(address => address) voters;\n     uint yea_count;\n     uint nay_count;\n     uint na_count;\n     bool isExists;\n     address beneficiary;\n     uint index;\n   }\n   struct contributorsdata{\n       uint value;\n   }\n   struct signersdata{\n       bool exists;\n   }\n  \n  mapping (address => signersdata) public members;\n  mapping(address => openproposaldata) public openProposals;\n  mapping(address => contributorsdata) public contributors;\n  address[] public openProposalAddresses;\n  address[] public contributorAddresses;\n  event test_value(uint indexed percentamt);\n  modifier onlyMembers() {\n        require(msg.sender == owner || members[msg.sender].exists == true);\n        _;\n    }\n  \n  function MultiSig(){\n    state = contractState.Accepting_contributions;\n    signer1 = 0xfa3c6a1d480a14c546f12cdbb6d1bacbf02a1610;\n    signer2 = 0x2f47343208d8db38a64f49d7384ce70367fc98c0;\n    signer3 = 0x7c0e7b2418141f492653c6bf9ced144c338ba740;\n    members[signer1].exists = true;\n    members[signer2].exists = true;\n    members[signer3].exists = true;\n   }\n    \n   function owner() external constant  returns(address){\n       return owner;\n   }\n   \n   function endContributionPeriod() onlyMembers external{\n       state = contractState.Active;\n   }\n   \n   function startContributionPeriod() onlyMembers external{\n       state = contractState.Accepting_contributions;\n   }\n  \n   function remove_at_index(uint index) onlyMembers returns(address[]) {\n        if (index >= openProposalAddresses.length) return;\n\n        for (uint i = index; i<openProposalAddresses.length-1; i++){\n            openProposalAddresses[i] = openProposalAddresses[i+1];\n        }\n        delete openProposalAddresses[openProposalAddresses.length-1];\n        openProposalAddresses.length--;\n        return openProposalAddresses;\n    }\n  \n   function contract_balance() external view returns (uint){\n       return this.balance;\n   }\n  \n   function submitProposal(uint _valueInWei)  external {\n       \n       require(state == contractState.Active);\n      uint prevProposalValue = openProposals[msg.sender].value;\n       uint expectedProposalValue = prevProposalValue + _valueInWei;\n       uint current_contract_balance = this.balance;\n        uint amtPercentage =  (expectedProposalValue * 100)  / current_contract_balance;\n        if(amtPercentage <= 10){\n       \n         test_value(amtPercentage);\n       openProposals[msg.sender].value += _valueInWei;\n       openProposals[msg.sender].proposalState = openProposalState.Open;\n       openProposals[msg.sender].votes[signer1] = voteStatus.NA;\n       openProposals[msg.sender].votes[signer2] = voteStatus.NA;\n       openProposals[msg.sender].votes[signer3] = voteStatus.NA;\n       openProposals[msg.sender].yea_count = 0;\n       openProposals[msg.sender].nay_count = 0;\n       openProposals[msg.sender].na_count = 3;\n       // if the proposal index not exists then create a new one\n       if( !openProposals[msg.sender].isExists){\n          openProposals[msg.sender].isExists = true;\n          openProposals[msg.sender].index = openProposalAddresses.length-1;\n          openProposalAddresses.push( msg.sender);\n       } \n       \n       openProposals[msg.sender].beneficiary = msg.sender;\n       \n       ProposalSubmitted(msg.sender, openProposals[msg.sender].value);\n     \n    }else revert('Error trying to propose more than 10%');\n       \n   }\n   \n   function listOpenBeneficiariesProposals() external view returns (address[]){\n       return openProposalAddresses;\n   }\n   \n   function getBeneficiaryProposal(address _beneficiary) external view returns (uint){\n       return openProposals[_beneficiary].value;\n   }\n   \n    function listContributors() external view returns (address[]){\n        return contributorAddresses;\n    }\n    \n    function getContributorAmount(address _contributor) external view returns (uint){\n        return contributors[_contributor].value;\n    }\n    \n   \n    \n    function approve(address _beneficiary) onlyMembers external{\n        require(openProposals[_beneficiary].isExists);\n        require(openProposals[_beneficiary].proposalState == openProposalState.Open);\n        // check if this signer has voted already, then we dont need to do anything\n        require(openProposals[_beneficiary].votes[msg.sender] != voteStatus.Yea);\n        \n       /* if(openProposals[_beneficiary].votes[msg.sender] == voteStatus.Nay){\n            openProposals[_beneficiary].votes[msg.sender] = voteStatus.Yea;\n             openProposals[_beneficiary].yea_count += 1;\n             openProposals[_beneficiary].nay_count -= 1;\n        } */\n        if(openProposals[_beneficiary].votes[msg.sender] == voteStatus.NA){\n            openProposals[_beneficiary].votes[msg.sender] = voteStatus.Yea;\n             openProposals[_beneficiary].yea_count += 1;\n             openProposals[_beneficiary].na_count -= 1;\n        }\n        \n         ProposalApproved(msg.sender, _beneficiary,openProposals[_beneficiary].value );\n         // check to ee if the treshold yea votes received to transfer the funds\n        if( openProposals[_beneficiary].yea_count >= 2){\n            // proposal approved, now transfer the funds to the benficiary\n            openProposals[_beneficiary].proposalState = openProposalState.Closed;\n            openProposalAddresses = remove_at_index(openProposals[_beneficiary].index);\n        }\n       \n    }\n    \n    function reject(address _beneficiary) onlyMembers external{\n        require(openProposals[_beneficiary].isExists);\n        require(openProposals[_beneficiary].proposalState == openProposalState.Open);\n        // check if this signer has voted already, then we dont need to do anything\n        require(openProposals[_beneficiary].votes[msg.sender] != voteStatus.Nay);\n        \n      /*  if(openProposals[_beneficiary].votes[msg.sender] == voteStatus.Yea){\n            openProposals[_beneficiary].votes[msg.sender] = voteStatus.Nay;\n             openProposals[_beneficiary].nay_count += 1;\n             openProposals[_beneficiary].yea_count -= 1;\n        } */\n        if(openProposals[_beneficiary].votes[msg.sender] == voteStatus.NA){\n            openProposals[_beneficiary].votes[msg.sender] = voteStatus.Nay;\n             openProposals[_beneficiary].nay_count += 1;\n             openProposals[_beneficiary].na_count -= 1;\n        }\n        \n         ProposalRejected(msg.sender, _beneficiary,openProposals[_beneficiary].value );\n         // check to ee if the treshold yea votes received to transfer the funds\n        if( openProposals[_beneficiary].nay_count >= 2){\n            // proposal approved, now transfer the funds to the benficiary\n            openProposals[_beneficiary].proposalState = openProposalState.Closed;\n             openProposalAddresses = remove_at_index(openProposals[_beneficiary].index);\n            \n        }\n    }\n    \n    function withdraw(uint _valueInWei) external{\n        // check if the contract is in Active state where proposals can be submitted, approved and amt can be withdrawn\n        // check if the sender exists in beneficiary list\n        //check if their proposal has max yea'sender\n        // check if the value they want to withdraw greater than 0\n        require(state == contractState.Active);\n        require(openProposals[msg.sender].isExists);\n        require(openProposals[msg.sender].yea_count >= 2); \n        require(_valueInWei > 0 && _valueInWei <= openProposals[msg.sender].value);\n        // after all checks have passed, then transfer the amount and deduct the balance from user value\n        openProposals[msg.sender].value -= _valueInWei;\n        openProposals[msg.sender].beneficiary.transfer(_valueInWei);\n            \n        \n    }\n\n    function getValue() returns (uint) {\n        return (30);\n    }\n\nfunction openProposalADD() view external returns(address[]) {\n    return openProposalAddresses;\n}\n    \nfunction getSignerVote(address _signer, address _beneficiary) view external returns(uint) {\n        if(openProposals[_beneficiary].votes[_signer] == voteStatus.NA) return (0);\n        if(openProposals[_beneficiary].votes[_signer] == voteStatus.Yea) return (1);\n        if(openProposals[_beneficiary].votes[_signer] == voteStatus.Nay) return (2);\n    }\n   \n   function () payable{\n       // fallback function to accept contributions\n       require(msg.value != 0);\n       require(state == contractState.Accepting_contributions);\n       contributors[msg.sender].value += msg.value;\n       contributorAddresses.push(msg.sender);\n       ReceivedContribution(msg.sender,msg.value);\n   }\n }",
  "sourcePath": "/Users/mow/Downloads/multisig-master/contracts/MultiSig.sol",
  "compiler": {
    "name": "solc",
    "version": "0.4.24+commit.e67f0147.Emscripten.clang"
  },
  "schemaVersion": "2.0.0",
  "updatedAt": "2018-07-12T02:18:08.940Z"
}